{
  "_format": "hh-sol-artifact-1",
  "contractName": "NFTGame",
  "sourceName": "contracts/NFTGame.sol",
  "abi": [
    {
      "inputs": [
        {
          "internalType": "string[]",
          "name": "characterNames",
          "type": "string[]"
        },
        {
          "internalType": "string[]",
          "name": "characterImageURIs",
          "type": "string[]"
        },
        {
          "internalType": "uint256[]",
          "name": "characterHp",
          "type": "uint256[]"
        },
        {
          "internalType": "uint256[]",
          "name": "characterAttackDmg",
          "type": "uint256[]"
        },
        {
          "internalType": "string",
          "name": "bossName",
          "type": "string"
        },
        {
          "internalType": "string",
          "name": "bossImageURI",
          "type": "string"
        },
        {
          "internalType": "uint256",
          "name": "bossHp",
          "type": "uint256"
        },
        {
          "internalType": "uint256",
          "name": "bossAttackDamage",
          "type": "uint256"
        }
      ],
      "stateMutability": "nonpayable",
      "type": "constructor"
    },
    {
      "anonymous": false,
      "inputs": [
        {
          "indexed": true,
          "internalType": "address",
          "name": "owner",
          "type": "address"
        },
        {
          "indexed": true,
          "internalType": "address",
          "name": "approved",
          "type": "address"
        },
        {
          "indexed": true,
          "internalType": "uint256",
          "name": "tokenId",
          "type": "uint256"
        }
      ],
      "name": "Approval",
      "type": "event"
    },
    {
      "anonymous": false,
      "inputs": [
        {
          "indexed": true,
          "internalType": "address",
          "name": "owner",
          "type": "address"
        },
        {
          "indexed": true,
          "internalType": "address",
          "name": "operator",
          "type": "address"
        },
        {
          "indexed": false,
          "internalType": "bool",
          "name": "approved",
          "type": "bool"
        }
      ],
      "name": "ApprovalForAll",
      "type": "event"
    },
    {
      "anonymous": false,
      "inputs": [
        {
          "indexed": false,
          "internalType": "uint256",
          "name": "newBossHp",
          "type": "uint256"
        },
        {
          "indexed": false,
          "internalType": "uint256",
          "name": "newPlayerHp",
          "type": "uint256"
        }
      ],
      "name": "AttackComplete",
      "type": "event"
    },
    {
      "anonymous": false,
      "inputs": [
        {
          "indexed": false,
          "internalType": "address",
          "name": "sender",
          "type": "address"
        },
        {
          "indexed": false,
          "internalType": "uint256",
          "name": "tokenId",
          "type": "uint256"
        },
        {
          "indexed": false,
          "internalType": "uint256",
          "name": "characterIndex",
          "type": "uint256"
        }
      ],
      "name": "CharacterNFTMinted",
      "type": "event"
    },
    {
      "anonymous": false,
      "inputs": [
        {
          "indexed": true,
          "internalType": "address",
          "name": "from",
          "type": "address"
        },
        {
          "indexed": true,
          "internalType": "address",
          "name": "to",
          "type": "address"
        },
        {
          "indexed": true,
          "internalType": "uint256",
          "name": "tokenId",
          "type": "uint256"
        }
      ],
      "name": "Transfer",
      "type": "event"
    },
    {
      "inputs": [
        {
          "internalType": "address",
          "name": "to",
          "type": "address"
        },
        {
          "internalType": "uint256",
          "name": "tokenId",
          "type": "uint256"
        }
      ],
      "name": "approve",
      "outputs": [],
      "stateMutability": "nonpayable",
      "type": "function"
    },
    {
      "inputs": [],
      "name": "attackBoss",
      "outputs": [],
      "stateMutability": "nonpayable",
      "type": "function"
    },
    {
      "inputs": [
        {
          "internalType": "address",
          "name": "owner",
          "type": "address"
        }
      ],
      "name": "balanceOf",
      "outputs": [
        {
          "internalType": "uint256",
          "name": "",
          "type": "uint256"
        }
      ],
      "stateMutability": "view",
      "type": "function"
    },
    {
      "inputs": [],
      "name": "bigBoss",
      "outputs": [
        {
          "internalType": "string",
          "name": "name",
          "type": "string"
        },
        {
          "internalType": "string",
          "name": "imageURI",
          "type": "string"
        },
        {
          "internalType": "uint256",
          "name": "hp",
          "type": "uint256"
        },
        {
          "internalType": "uint256",
          "name": "maxHp",
          "type": "uint256"
        },
        {
          "internalType": "uint256",
          "name": "attackDamage",
          "type": "uint256"
        }
      ],
      "stateMutability": "view",
      "type": "function"
    },
    {
      "inputs": [],
      "name": "checkIfUserHasNFT",
      "outputs": [
        {
          "components": [
            {
              "internalType": "uint256",
              "name": "characterIndex",
              "type": "uint256"
            },
            {
              "internalType": "string",
              "name": "name",
              "type": "string"
            },
            {
              "internalType": "string",
              "name": "imageURI",
              "type": "string"
            },
            {
              "internalType": "uint256",
              "name": "hp",
              "type": "uint256"
            },
            {
              "internalType": "uint256",
              "name": "maxHp",
              "type": "uint256"
            },
            {
              "internalType": "uint256",
              "name": "attackDamage",
              "type": "uint256"
            }
          ],
          "internalType": "struct NFTGame.CharacterAttributes",
          "name": "",
          "type": "tuple"
        }
      ],
      "stateMutability": "view",
      "type": "function"
    },
    {
      "inputs": [],
      "name": "getAllDefaultCharacters",
      "outputs": [
        {
          "components": [
            {
              "internalType": "uint256",
              "name": "characterIndex",
              "type": "uint256"
            },
            {
              "internalType": "string",
              "name": "name",
              "type": "string"
            },
            {
              "internalType": "string",
              "name": "imageURI",
              "type": "string"
            },
            {
              "internalType": "uint256",
              "name": "hp",
              "type": "uint256"
            },
            {
              "internalType": "uint256",
              "name": "maxHp",
              "type": "uint256"
            },
            {
              "internalType": "uint256",
              "name": "attackDamage",
              "type": "uint256"
            }
          ],
          "internalType": "struct NFTGame.CharacterAttributes[]",
          "name": "",
          "type": "tuple[]"
        }
      ],
      "stateMutability": "view",
      "type": "function"
    },
    {
      "inputs": [
        {
          "internalType": "uint256",
          "name": "tokenId",
          "type": "uint256"
        }
      ],
      "name": "getApproved",
      "outputs": [
        {
          "internalType": "address",
          "name": "",
          "type": "address"
        }
      ],
      "stateMutability": "view",
      "type": "function"
    },
    {
      "inputs": [],
      "name": "getBigBoss",
      "outputs": [
        {
          "components": [
            {
              "internalType": "string",
              "name": "name",
              "type": "string"
            },
            {
              "internalType": "string",
              "name": "imageURI",
              "type": "string"
            },
            {
              "internalType": "uint256",
              "name": "hp",
              "type": "uint256"
            },
            {
              "internalType": "uint256",
              "name": "maxHp",
              "type": "uint256"
            },
            {
              "internalType": "uint256",
              "name": "attackDamage",
              "type": "uint256"
            }
          ],
          "internalType": "struct NFTGame.BigBoss",
          "name": "",
          "type": "tuple"
        }
      ],
      "stateMutability": "view",
      "type": "function"
    },
    {
      "inputs": [],
      "name": "getTotalPlayers",
      "outputs": [
        {
          "internalType": "uint256",
          "name": "",
          "type": "uint256"
        }
      ],
      "stateMutability": "view",
      "type": "function"
    },
    {
      "inputs": [
        {
          "internalType": "address",
          "name": "owner",
          "type": "address"
        },
        {
          "internalType": "address",
          "name": "operator",
          "type": "address"
        }
      ],
      "name": "isApprovedForAll",
      "outputs": [
        {
          "internalType": "bool",
          "name": "",
          "type": "bool"
        }
      ],
      "stateMutability": "view",
      "type": "function"
    },
    {
      "inputs": [
        {
          "internalType": "uint256",
          "name": "_characterIndex",
          "type": "uint256"
        }
      ],
      "name": "mintCharacterNFT",
      "outputs": [],
      "stateMutability": "nonpayable",
      "type": "function"
    },
    {
      "inputs": [],
      "name": "name",
      "outputs": [
        {
          "internalType": "string",
          "name": "",
          "type": "string"
        }
      ],
      "stateMutability": "view",
      "type": "function"
    },
    {
      "inputs": [
        {
          "internalType": "uint256",
          "name": "",
          "type": "uint256"
        }
      ],
      "name": "nftHolderAttributes",
      "outputs": [
        {
          "internalType": "uint256",
          "name": "characterIndex",
          "type": "uint256"
        },
        {
          "internalType": "string",
          "name": "name",
          "type": "string"
        },
        {
          "internalType": "string",
          "name": "imageURI",
          "type": "string"
        },
        {
          "internalType": "uint256",
          "name": "hp",
          "type": "uint256"
        },
        {
          "internalType": "uint256",
          "name": "maxHp",
          "type": "uint256"
        },
        {
          "internalType": "uint256",
          "name": "attackDamage",
          "type": "uint256"
        }
      ],
      "stateMutability": "view",
      "type": "function"
    },
    {
      "inputs": [
        {
          "internalType": "address",
          "name": "",
          "type": "address"
        }
      ],
      "name": "nftHolders",
      "outputs": [
        {
          "internalType": "uint256",
          "name": "",
          "type": "uint256"
        }
      ],
      "stateMutability": "view",
      "type": "function"
    },
    {
      "inputs": [
        {
          "internalType": "uint256",
          "name": "tokenId",
          "type": "uint256"
        }
      ],
      "name": "ownerOf",
      "outputs": [
        {
          "internalType": "address",
          "name": "",
          "type": "address"
        }
      ],
      "stateMutability": "view",
      "type": "function"
    },
    {
      "inputs": [
        {
          "internalType": "address",
          "name": "from",
          "type": "address"
        },
        {
          "internalType": "address",
          "name": "to",
          "type": "address"
        },
        {
          "internalType": "uint256",
          "name": "tokenId",
          "type": "uint256"
        }
      ],
      "name": "safeTransferFrom",
      "outputs": [],
      "stateMutability": "nonpayable",
      "type": "function"
    },
    {
      "inputs": [
        {
          "internalType": "address",
          "name": "from",
          "type": "address"
        },
        {
          "internalType": "address",
          "name": "to",
          "type": "address"
        },
        {
          "internalType": "uint256",
          "name": "tokenId",
          "type": "uint256"
        },
        {
          "internalType": "bytes",
          "name": "_data",
          "type": "bytes"
        }
      ],
      "name": "safeTransferFrom",
      "outputs": [],
      "stateMutability": "nonpayable",
      "type": "function"
    },
    {
      "inputs": [
        {
          "internalType": "address",
          "name": "operator",
          "type": "address"
        },
        {
          "internalType": "bool",
          "name": "approved",
          "type": "bool"
        }
      ],
      "name": "setApprovalForAll",
      "outputs": [],
      "stateMutability": "nonpayable",
      "type": "function"
    },
    {
      "inputs": [
        {
          "internalType": "bytes4",
          "name": "interfaceId",
          "type": "bytes4"
        }
      ],
      "name": "supportsInterface",
      "outputs": [
        {
          "internalType": "bool",
          "name": "",
          "type": "bool"
        }
      ],
      "stateMutability": "view",
      "type": "function"
    },
    {
      "inputs": [],
      "name": "symbol",
      "outputs": [
        {
          "internalType": "string",
          "name": "",
          "type": "string"
        }
      ],
      "stateMutability": "view",
      "type": "function"
    },
    {
      "inputs": [
        {
          "internalType": "uint256",
          "name": "_tokenId",
          "type": "uint256"
        }
      ],
      "name": "tokenURI",
      "outputs": [
        {
          "internalType": "string",
          "name": "",
          "type": "string"
        }
      ],
      "stateMutability": "view",
      "type": "function"
    },
    {
      "inputs": [
        {
          "internalType": "address",
          "name": "from",
          "type": "address"
        },
        {
          "internalType": "address",
          "name": "to",
          "type": "address"
        },
        {
          "internalType": "uint256",
          "name": "tokenId",
          "type": "uint256"
        }
      ],
      "name": "transferFrom",
      "outputs": [],
      "stateMutability": "nonpayable",
      "type": "function"
    }
  ],
  "bytecode": "0x60806040523480156200001157600080fd5b506040516200570338038062005703833981810160405281019062000037919062000a5a565b6040518060400160405280600a81526020017f477265656b20476f6473000000000000000000000000000000000000000000008152506040518060400160405280600481526020017f476f6473000000000000000000000000000000000000000000000000000000008152508160009080519060200190620000bb929190620007ed565b508060019080519060200190620000d4929190620007ed565b5050506040518060a0016040528085815260200184815260200183815260200183815260200182815250600960008201518160000190805190602001906200011e929190620007ed565b5060208201518160010190805190602001906200013d929190620007ed565b50604082015181600201556060820151816003015560808201518160040155905050620002c06040518060600160405280602a8152602001620056d9602a9139600960000180546200018f9062000de5565b80601f0160208091040260200160405190810160405280929190818152602001828054620001bd9062000de5565b80156200020e5780601f10620001e2576101008083540402835291602001916200020e565b820191906000526020600020905b815481529060010190602001808311620001f057829003601f168201915b5050505050600960020154600960010180546200022b9062000de5565b80601f0160208091040260200160405190810160405280929190818152602001828054620002599062000de5565b8015620002aa5780601f106200027e57610100808354040283529160200191620002aa565b820191906000526020600020905b8154815290600101906020018083116200028c57829003601f168201915b50505050506200070260201b62001d711760201c565b60005b8851811015620006dc5760076040518060c001604052808381526020018b84815181106200031a577f4e487b7100000000000000000000000000000000000000000000000000000000600052603260045260246000fd5b602002602001015181526020018a848151811062000361577f4e487b7100000000000000000000000000000000000000000000000000000000600052603260045260246000fd5b60200260200101518152602001898481518110620003a8577f4e487b7100000000000000000000000000000000000000000000000000000000600052603260045260246000fd5b60200260200101518152602001898481518110620003ef577f4e487b7100000000000000000000000000000000000000000000000000000000600052603260045260246000fd5b6020026020010151815260200188848151811062000436577f4e487b7100000000000000000000000000000000000000000000000000000000600052603260045260246000fd5b6020026020010151815250908060018154018082558091505060019003906000526020600020906006020160009091909190915060008201518160000155602082015181600101908051906020019062000492929190620007ed565b506040820151816002019080519060200190620004b1929190620007ed565b50606082015181600301556080820151816004015560a0820151816005015550506000600782815481106200050f577f4e487b7100000000000000000000000000000000000000000000000000000000600052603260045260246000fd5b90600052602060002090600602016040518060c001604052908160008201548152602001600182018054620005449062000de5565b80601f0160208091040260200160405190810160405280929190818152602001828054620005729062000de5565b8015620005c35780601f106200059757610100808354040283529160200191620005c3565b820191906000526020600020905b815481529060010190602001808311620005a557829003601f168201915b50505050508152602001600282018054620005de9062000de5565b80601f01602080910402602001604051908101604052809291908181526020018280546200060c9062000de5565b80156200065d5780601f1062000631576101008083540402835291602001916200065d565b820191906000526020600020905b8154815290600101906020018083116200063f57829003601f168201915b5050505050815260200160038201548152602001600482015481526020016005820154815250509050620006c4604051806060016040528060258152602001620056b4602591398260200151836060015184604001516200070260201b62001d711760201c565b50600181620006d4919062000d48565b9050620002c3565b50620006f46006620007ae60201b62001e131760201c565b505050505050505062000ed3565b620007a8848484846040516024016200071f949392919062000c05565b6040516020818303038152906040527f8d142cdd000000000000000000000000000000000000000000000000000000007bffffffffffffffffffffffffffffffffffffffffffffffffffffffff19166020820180517bffffffffffffffffffffffffffffffffffffffffffffffffffffffff8381831617835250505050620007c460201b60201c565b50505050565b6001816000016000828254019250508190555050565b60008151905060006a636f6e736f6c652e6c6f679050602083016000808483855afa5050505050565b828054620007fb9062000de5565b90600052602060002090601f0160209004810192826200081f57600085556200086b565b82601f106200083a57805160ff19168380011785556200086b565b828001600101855582156200086b579182015b828111156200086a5782518255916020019190600101906200084d565b5b5090506200087a91906200087e565b5090565b5b80821115620008995760008160009055506001016200087f565b5090565b6000620008b4620008ae8462000c9b565b62000c67565b9050808382526020820190508260005b85811015620008f85781518501620008dd888262000a16565b845260208401935060208301925050600181019050620008c4565b5050509392505050565b600062000919620009138462000cca565b62000c67565b905080838252602082019050828560208602820111156200093957600080fd5b60005b858110156200096d578162000952888262000a43565b8452602084019350602083019250506001810190506200093c565b5050509392505050565b60006200098e620009888462000cf9565b62000c67565b905082815260208101848484011115620009a757600080fd5b620009b484828562000daf565b509392505050565b600082601f830112620009ce57600080fd5b8151620009e08482602086016200089d565b91505092915050565b600082601f830112620009fb57600080fd5b815162000a0d84826020860162000902565b91505092915050565b600082601f83011262000a2857600080fd5b815162000a3a84826020860162000977565b91505092915050565b60008151905062000a548162000eb9565b92915050565b600080600080600080600080610100898b03121562000a7857600080fd5b600089015167ffffffffffffffff81111562000a9357600080fd5b62000aa18b828c01620009bc565b985050602089015167ffffffffffffffff81111562000abf57600080fd5b62000acd8b828c01620009bc565b975050604089015167ffffffffffffffff81111562000aeb57600080fd5b62000af98b828c01620009e9565b965050606089015167ffffffffffffffff81111562000b1757600080fd5b62000b258b828c01620009e9565b955050608089015167ffffffffffffffff81111562000b4357600080fd5b62000b518b828c0162000a16565b94505060a089015167ffffffffffffffff81111562000b6f57600080fd5b62000b7d8b828c0162000a16565b93505060c062000b908b828c0162000a43565b92505060e062000ba38b828c0162000a43565b9150509295985092959890939650565b600062000bc08262000d2c565b62000bcc818562000d37565b935062000bde81856020860162000daf565b62000be98162000ea8565b840191505092915050565b62000bff8162000da5565b82525050565b6000608082019050818103600083015262000c21818762000bb3565b9050818103602083015262000c37818662000bb3565b905062000c48604083018562000bf4565b818103606083015262000c5c818462000bb3565b905095945050505050565b6000604051905081810181811067ffffffffffffffff8211171562000c915762000c9062000e79565b5b8060405250919050565b600067ffffffffffffffff82111562000cb95762000cb862000e79565b5b602082029050602081019050919050565b600067ffffffffffffffff82111562000ce85762000ce762000e79565b5b602082029050602081019050919050565b600067ffffffffffffffff82111562000d175762000d1662000e79565b5b601f19601f8301169050602081019050919050565b600081519050919050565b600082825260208201905092915050565b600062000d558262000da5565b915062000d628362000da5565b9250827fffffffffffffffffffffffffffffffffffffffffffffffffffffffffffffffff0382111562000d9a5762000d9962000e1b565b5b828201905092915050565b6000819050919050565b60005b8381101562000dcf57808201518184015260208101905062000db2565b8381111562000ddf576000848401525b50505050565b6000600282049050600182168062000dfe57607f821691505b6020821081141562000e155762000e1462000e4a565b5b50919050565b7f4e487b7100000000000000000000000000000000000000000000000000000000600052601160045260246000fd5b7f4e487b7100000000000000000000000000000000000000000000000000000000600052602260045260246000fd5b7f4e487b7100000000000000000000000000000000000000000000000000000000600052604160045260246000fd5b6000601f19601f8301169050919050565b62000ec48162000da5565b811462000ed057600080fd5b50565b6147d18062000ee36000396000f3fe608060405234801561001057600080fd5b50600436106101425760003560e01c806395d89b41116100b8578063b953084e1161007c578063b953084e14610392578063c87b56dd146103b0578063c8cf27f4146103e0578063d4f24c5b146103fe578063e985e9c514610408578063f8b81ef71461043857610142565b806395d89b41146102e557806398da4c9514610303578063a22cb46514610338578063a9c3267914610354578063b88d4fde1461037657610142565b806323b872dd1161010a57806323b872dd146101ff57806342842e0e1461021b5780634529cae7146102375780636352211e1461025557806370a08231146102855780637df124a1146102b557610142565b806301ffc9a7146101475780630665f9611461017757806306fdde0314610195578063081812fc146101b3578063095ea7b3146101e3575b600080fd5b610161600480360381019061015c919061304b565b610454565b60405161016e9190613dab565b60405180910390f35b61017f610536565b60405161018c9190614144565b60405180910390f35b61019d610692565b6040516101aa9190613dc6565b60405180910390f35b6101cd60048036038101906101c8919061309d565b610724565b6040516101da9190613ceb565b60405180910390f35b6101fd60048036038101906101f8919061300f565b6107a9565b005b61021960048036038101906102149190612f09565b6108c1565b005b61023560048036038101906102309190612f09565b610921565b005b61023f610941565b60405161024c9190614188565b60405180910390f35b61026f600480360381019061026a919061309d565b610952565b60405161027c9190613ceb565b60405180910390f35b61029f600480360381019061029a9190612ea4565b610a04565b6040516102ac9190614188565b60405180910390f35b6102cf60048036038101906102ca9190612ea4565b610abc565b6040516102dc9190614188565b60405180910390f35b6102ed610ad4565b6040516102fa9190613dc6565b60405180910390f35b61031d6004803603810190610318919061309d565b610b66565b60405161032f969594939291906141a3565b60405180910390f35b610352600480360381019061034d9190612fd3565b610cb2565b005b61035c610e33565b60405161036d959493929190613e95565b60405180910390f35b610390600480360381019061038b9190612f58565b610f67565b005b61039a610fc9565b6040516103a79190613d89565b60405180910390f35b6103ca60048036038101906103c5919061309d565b611174565b6040516103d79190613dc6565b60405180910390f35b6103e861138f565b6040516103f59190614166565b60405180910390f35b610406611567565b005b610422600480360381019061041d9190612ecd565b6118e9565b60405161042f9190613dab565b60405180910390f35b610452600480360381019061044d919061309d565b61197d565b005b60007f80ac58cd000000000000000000000000000000000000000000000000000000007bffffffffffffffffffffffffffffffffffffffffffffffffffffffff1916827bffffffffffffffffffffffffffffffffffffffffffffffffffffffff1916148061051f57507f5b5e139f000000000000000000000000000000000000000000000000000000007bffffffffffffffffffffffffffffffffffffffffffffffffffffffff1916827bffffffffffffffffffffffffffffffffffffffffffffffffffffffff1916145b8061052f575061052e82611e29565b5b9050919050565b61053e612ccb565b60096040518060a001604052908160008201805461055b906144f4565b80601f0160208091040260200160405190810160405280929190818152602001828054610587906144f4565b80156105d45780601f106105a9576101008083540402835291602001916105d4565b820191906000526020600020905b8154815290600101906020018083116105b757829003601f168201915b505050505081526020016001820180546105ed906144f4565b80601f0160208091040260200160405190810160405280929190818152602001828054610619906144f4565b80156106665780601f1061063b57610100808354040283529160200191610666565b820191906000526020600020905b81548152906001019060200180831161064957829003601f168201915b505050505081526020016002820154815260200160038201548152602001600482015481525050905090565b6060600080546106a1906144f4565b80601f01602080910402602001604051908101604052809291908181526020018280546106cd906144f4565b801561071a5780601f106106ef5761010080835404028352916020019161071a565b820191906000526020600020905b8154815290600101906020018083116106fd57829003601f168201915b5050505050905090565b600061072f82611e93565b61076e576040517f08c379a0000000000000000000000000000000000000000000000000000000008152600401610765906140c4565b60405180910390fd5b6004600083815260200190815260200160002060009054906101000a900473ffffffffffffffffffffffffffffffffffffffff169050919050565b60006107b482610952565b90508073ffffffffffffffffffffffffffffffffffffffff168373ffffffffffffffffffffffffffffffffffffffff161415610825576040517f08c379a000000000000000000000000000000000000000000000000000000000815260040161081c90614104565b60405180910390fd5b8073ffffffffffffffffffffffffffffffffffffffff16610844611eff565b73ffffffffffffffffffffffffffffffffffffffff16148061087357506108728161086d611eff565b6118e9565b5b6108b2576040517f08c379a00000000000000000000000000000000000000000000000000000000081526004016108a990614024565b60405180910390fd5b6108bc8383611f07565b505050565b6108d26108cc611eff565b82611fc0565b610911576040517f08c379a000000000000000000000000000000000000000000000000000000000815260040161090890614124565b60405180910390fd5b61091c83838361209e565b505050565b61093c83838360405180602001604052806000815250610f67565b505050565b600061094d60066122fa565b905090565b6000806002600084815260200190815260200160002060009054906101000a900473ffffffffffffffffffffffffffffffffffffffff169050600073ffffffffffffffffffffffffffffffffffffffff168173ffffffffffffffffffffffffffffffffffffffff1614156109fb576040517f08c379a00000000000000000000000000000000000000000000000000000000081526004016109f290614064565b60405180910390fd5b80915050919050565b60008073ffffffffffffffffffffffffffffffffffffffff168273ffffffffffffffffffffffffffffffffffffffff161415610a75576040517f08c379a0000000000000000000000000000000000000000000000000000000008152600401610a6c90614044565b60405180910390fd5b600360008373ffffffffffffffffffffffffffffffffffffffff1673ffffffffffffffffffffffffffffffffffffffff168152602001908152602001600020549050919050565b600e6020528060005260406000206000915090505481565b606060018054610ae3906144f4565b80601f0160208091040260200160405190810160405280929190818152602001828054610b0f906144f4565b8015610b5c5780601f10610b3157610100808354040283529160200191610b5c565b820191906000526020600020905b815481529060010190602001808311610b3f57829003601f168201915b5050505050905090565b6008602052806000526040600020600091509050806000015490806001018054610b8f906144f4565b80601f0160208091040260200160405190810160405280929190818152602001828054610bbb906144f4565b8015610c085780601f10610bdd57610100808354040283529160200191610c08565b820191906000526020600020905b815481529060010190602001808311610beb57829003601f168201915b505050505090806002018054610c1d906144f4565b80601f0160208091040260200160405190810160405280929190818152602001828054610c49906144f4565b8015610c965780601f10610c6b57610100808354040283529160200191610c96565b820191906000526020600020905b815481529060010190602001808311610c7957829003601f168201915b5050505050908060030154908060040154908060050154905086565b610cba611eff565b73ffffffffffffffffffffffffffffffffffffffff168273ffffffffffffffffffffffffffffffffffffffff161415610d28576040517f08c379a0000000000000000000000000000000000000000000000000000000008152600401610d1f90613fe4565b60405180910390fd5b8060056000610d35611eff565b73ffffffffffffffffffffffffffffffffffffffff1673ffffffffffffffffffffffffffffffffffffffff16815260200190815260200160002060008473ffffffffffffffffffffffffffffffffffffffff1673ffffffffffffffffffffffffffffffffffffffff16815260200190815260200160002060006101000a81548160ff0219169083151502179055508173ffffffffffffffffffffffffffffffffffffffff16610de2611eff565b73ffffffffffffffffffffffffffffffffffffffff167f17307eab39ab6107e8899845ad3d59bd9653f200f220920489ca2b5937696c3183604051610e279190613dab565b60405180910390a35050565b6009806000018054610e44906144f4565b80601f0160208091040260200160405190810160405280929190818152602001828054610e70906144f4565b8015610ebd5780601f10610e9257610100808354040283529160200191610ebd565b820191906000526020600020905b815481529060010190602001808311610ea057829003601f168201915b505050505090806001018054610ed2906144f4565b80601f0160208091040260200160405190810160405280929190818152602001828054610efe906144f4565b8015610f4b5780601f10610f2057610100808354040283529160200191610f4b565b820191906000526020600020905b815481529060010190602001808311610f2e57829003601f168201915b5050505050908060020154908060030154908060040154905085565b610f78610f72611eff565b83611fc0565b610fb7576040517f08c379a0000000000000000000000000000000000000000000000000000000008152600401610fae90614124565b60405180910390fd5b610fc384848484612308565b50505050565b60606007805480602002602001604051908101604052809291908181526020016000905b8282101561116b57838290600052602060002090600602016040518060c00160405290816000820154815260200160018201805461102a906144f4565b80601f0160208091040260200160405190810160405280929190818152602001828054611056906144f4565b80156110a35780601f10611078576101008083540402835291602001916110a3565b820191906000526020600020905b81548152906001019060200180831161108657829003601f168201915b505050505081526020016002820180546110bc906144f4565b80601f01602080910402602001604051908101604052809291908181526020018280546110e8906144f4565b80156111355780601f1061110a57610100808354040283529160200191611135565b820191906000526020600020905b81548152906001019060200180831161111857829003601f168201915b50505050508152602001600382015481526020016004820154815260200160058201548152505081526020019060010190610fed565b50505050905090565b60606000600860008481526020019081526020016000206040518060c0016040529081600082015481526020016001820180546111b0906144f4565b80601f01602080910402602001604051908101604052809291908181526020018280546111dc906144f4565b80156112295780601f106111fe57610100808354040283529160200191611229565b820191906000526020600020905b81548152906001019060200180831161120c57829003601f168201915b50505050508152602001600282018054611242906144f4565b80601f016020809104026020016040519081016040528092919081815260200182805461126e906144f4565b80156112bb5780601f10611290576101008083540402835291602001916112bb565b820191906000526020600020905b81548152906001019060200180831161129e57829003601f168201915b505050505081526020016003820154815260200160048201548152602001600582015481525050905060006112f38260600151612364565b905060006113048360800151612364565b905060006113158460a00151612364565b9050600061135b856020015161132a89612364565b876040015187878760405160200161134796959493929190613c24565b604051602081830303815290604052612511565b90506000816040516020016113709190613cc9565b6040516020818303038152906040529050809650505050505050919050565b611397612cfa565b6000600e60003373ffffffffffffffffffffffffffffffffffffffff1673ffffffffffffffffffffffffffffffffffffffff168152602001908152602001600020549050600081111561155657600860008281526020019081526020016000206040518060c00160405290816000820154815260200160018201805461141c906144f4565b80601f0160208091040260200160405190810160405280929190818152602001828054611448906144f4565b80156114955780601f1061146a57610100808354040283529160200191611495565b820191906000526020600020905b81548152906001019060200180831161147857829003601f168201915b505050505081526020016002820180546114ae906144f4565b80601f01602080910402602001604051908101604052809291908181526020018280546114da906144f4565b80156115275780601f106114fc57610100808354040283529160200191611527565b820191906000526020600020905b81548152906001019060200180831161150a57829003601f168201915b505050505081526020016003820154815260200160048201548152602001600582015481525050915050611564565b61155e612cfa565b80925050505b90565b6000600e60003373ffffffffffffffffffffffffffffffffffffffff1673ffffffffffffffffffffffffffffffffffffffff168152602001908152602001600020549050600060086000838152602001908152602001600020905061167a6040518060600160405280603c8152602001614760603c91398260010180546115ed906144f4565b80601f0160208091040260200160405190810160405280929190818152602001828054611619906144f4565b80156116665780601f1061163b57610100808354040283529160200191611666565b820191906000526020600020905b81548152906001019060200180831161164957829003601f168201915b5050505050836003015484600501546126cf565b6117526040518060400160405280601b81526020017f426f73732025732068617320257320485020616e642025732041440000000000815250600960000180546116c3906144f4565b80601f01602080910402602001604051908101604052809291908181526020018280546116ef906144f4565b801561173c5780601f106117115761010080835404028352916020019161173c565b820191906000526020600020905b81548152906001019060200180831161171f57829003601f168201915b50505050506009600201546009600401546126cf565b6000816003015411611799576040517f08c379a000000000000000000000000000000000000000000000000000000000815260040161179090614084565b60405180910390fd5b600060096002015414156117b7576009600301546009600201819055505b6000600960020154116117ff576040517f08c379a00000000000000000000000000000000000000000000000000000000081526004016117f690613f84565b60405180910390fd5b8060050154600960020154101561182057600060096002018190555061183f565b8060050154600960020154611835919061440a565b6009600201819055505b6009600401548160030154101561185f576000816003018190555061187d565b6009600401548160030154611874919061440a565b81600301819055505b6118a360405180606001604052806028815260200161470a602891398260030154612771565b7f838ab28464562786a6c4ab2311964b82fa60bd9b14aa7e856af1f3f18d41a41460096002015482600301546040516118dd929190614212565b60405180910390a15050565b6000600560008473ffffffffffffffffffffffffffffffffffffffff1673ffffffffffffffffffffffffffffffffffffffff16815260200190815260200160002060008373ffffffffffffffffffffffffffffffffffffffff1673ffffffffffffffffffffffffffffffffffffffff16815260200190815260200160002060009054906101000a900460ff16905092915050565b600061198960066122fa565b9050611995338261280d565b6040518060c00160405280838152602001600784815481106119e0577f4e487b7100000000000000000000000000000000000000000000000000000000600052603260045260246000fd5b906000526020600020906006020160010180546119fc906144f4565b80601f0160208091040260200160405190810160405280929190818152602001828054611a28906144f4565b8015611a755780601f10611a4a57610100808354040283529160200191611a75565b820191906000526020600020905b815481529060010190602001808311611a5857829003601f168201915b5050505050815260200160078481548110611ab9577f4e487b7100000000000000000000000000000000000000000000000000000000600052603260045260246000fd5b90600052602060002090600602016002018054611ad5906144f4565b80601f0160208091040260200160405190810160405280929190818152602001828054611b01906144f4565b8015611b4e5780601f10611b2357610100808354040283529160200191611b4e565b820191906000526020600020905b815481529060010190602001808311611b3157829003601f168201915b5050505050815260200160078481548110611b92577f4e487b7100000000000000000000000000000000000000000000000000000000600052603260045260246000fd5b906000526020600020906006020160030154815260200160078481548110611be3577f4e487b7100000000000000000000000000000000000000000000000000000000600052603260045260246000fd5b906000526020600020906006020160030154815260200160078481548110611c34577f4e487b7100000000000000000000000000000000000000000000000000000000600052603260045260246000fd5b90600052602060002090600602016005015481525060086000838152602001908152602001600020600082015181600001556020820151816001019080519060200190611c82929190612d30565b506040820151816002019080519060200190611c9f929190612d30565b50606082015181600301556080820151816004015560a08201518160050155905050611ce46040518060600160405280602e8152602001614732602e9139828461282b565b80600e60003373ffffffffffffffffffffffffffffffffffffffff1673ffffffffffffffffffffffffffffffffffffffff16815260200190815260200160002081905550611d326006611e13565b7f4bc303fd457a97b4691b9af582ce71868a3d258638c8d4f8c60988a0f0bfb8cd338284604051611d6593929190613d52565b60405180910390a15050565b611e0d84848484604051602401611d8b9493929190613de8565b6040516020818303038152906040527f8d142cdd000000000000000000000000000000000000000000000000000000007bffffffffffffffffffffffffffffffffffffffffffffffffffffffff19166020820180517bffffffffffffffffffffffffffffffffffffffffffffffffffffffff83818316178352505050506128ca565b50505050565b6001816000016000828254019250508190555050565b60007f01ffc9a7000000000000000000000000000000000000000000000000000000007bffffffffffffffffffffffffffffffffffffffffffffffffffffffff1916827bffffffffffffffffffffffffffffffffffffffffffffffffffffffff1916149050919050565b60008073ffffffffffffffffffffffffffffffffffffffff166002600084815260200190815260200160002060009054906101000a900473ffffffffffffffffffffffffffffffffffffffff1673ffffffffffffffffffffffffffffffffffffffff1614159050919050565b600033905090565b816004600083815260200190815260200160002060006101000a81548173ffffffffffffffffffffffffffffffffffffffff021916908373ffffffffffffffffffffffffffffffffffffffff160217905550808273ffffffffffffffffffffffffffffffffffffffff16611f7a83610952565b73ffffffffffffffffffffffffffffffffffffffff167f8c5be1e5ebec7d5bd14f71427d1e84f3dd0314c0f7b2291e5b200ac8c7c3b92560405160405180910390a45050565b6000611fcb82611e93565b61200a576040517f08c379a000000000000000000000000000000000000000000000000000000000815260040161200190614004565b60405180910390fd5b600061201583610952565b90508073ffffffffffffffffffffffffffffffffffffffff168473ffffffffffffffffffffffffffffffffffffffff16148061208457508373ffffffffffffffffffffffffffffffffffffffff1661206c84610724565b73ffffffffffffffffffffffffffffffffffffffff16145b80612095575061209481856118e9565b5b91505092915050565b8273ffffffffffffffffffffffffffffffffffffffff166120be82610952565b73ffffffffffffffffffffffffffffffffffffffff1614612114576040517f08c379a000000000000000000000000000000000000000000000000000000000815260040161210b906140e4565b60405180910390fd5b600073ffffffffffffffffffffffffffffffffffffffff168273ffffffffffffffffffffffffffffffffffffffff161415612184576040517f08c379a000000000000000000000000000000000000000000000000000000000815260040161217b90613fc4565b60405180910390fd5b61218f8383836128f3565b61219a600082611f07565b6001600360008573ffffffffffffffffffffffffffffffffffffffff1673ffffffffffffffffffffffffffffffffffffffff16815260200190815260200160002060008282546121ea919061440a565b925050819055506001600360008473ffffffffffffffffffffffffffffffffffffffff1673ffffffffffffffffffffffffffffffffffffffff16815260200190815260200160002060008282546122419190614329565b92505081905550816002600083815260200190815260200160002060006101000a81548173ffffffffffffffffffffffffffffffffffffffff021916908373ffffffffffffffffffffffffffffffffffffffff160217905550808273ffffffffffffffffffffffffffffffffffffffff168473ffffffffffffffffffffffffffffffffffffffff167fddf252ad1be2c89b69c2b068fc378daa952ba7f163c4a11628f55a4df523b3ef60405160405180910390a4505050565b600081600001549050919050565b61231384848461209e565b61231f848484846128f8565b61235e576040517f08c379a000000000000000000000000000000000000000000000000000000000815260040161235590613f64565b60405180910390fd5b50505050565b606060008214156123ac576040518060400160405280600181526020017f3000000000000000000000000000000000000000000000000000000000000000815250905061250c565b600082905060005b600082146123de5780806123c790614526565b915050600a826123d7919061437f565b91506123b4565b60008167ffffffffffffffff811115612420577f4e487b7100000000000000000000000000000000000000000000000000000000600052604160045260246000fd5b6040519080825280601f01601f1916602001820160405280156124525781602001600182028036833780820191505090505b5090505b600085146125055760018261246b919061440a565b9150600a8561247a919061456f565b60306124869190614329565b60f81b8183815181106124c2577f4e487b7100000000000000000000000000000000000000000000000000000000600052603260045260246000fd5b60200101907effffffffffffffffffffffffffffffffffffffffffffffffffffffffffffff1916908160001a905350600a856124fe919061437f565b9450612456565b8093505050505b919050565b6060600082519050600081141561253a57604051806020016040528060008152509150506126ca565b6000600360028361254b9190614329565b612555919061437f565b600461256191906143b0565b905060006020826125729190614329565b67ffffffffffffffff8111156125b1577f4e487b7100000000000000000000000000000000000000000000000000000000600052604160045260246000fd5b6040519080825280601f01601f1916602001820160405280156125e35781602001600182028036833780820191505090505b50905060006040518060600160405280604081526020016146ca604091399050600181016020830160005b868110156126875760038101905062ffffff818a015116603f8160121c168401518060081b905060ff603f83600c1c1686015116810190508060081b905060ff603f8360061c1686015116810190508060081b905060ff603f831686015116810190508060e01b9050808452600484019350505061260e565b5060038606600181146126a157600281146126b1576126bc565b613d3d60f01b60028303526126bc565b603d60f81b60018303525b508484525050819450505050505b919050565b61276b848484846040516024016126e99493929190613e42565b6040516020818303038152906040527fd5cf17d0000000000000000000000000000000000000000000000000000000007bffffffffffffffffffffffffffffffffffffffffffffffffffffffff19166020820180517bffffffffffffffffffffffffffffffffffffffffffffffffffffffff83818316178352505050506128ca565b50505050565b6128098282604051602401612787929190613ef6565b6040516020818303038152906040527f9710a9d0000000000000000000000000000000000000000000000000000000007bffffffffffffffffffffffffffffffffffffffffffffffffffffffff19166020820180517bffffffffffffffffffffffffffffffffffffffffffffffffffffffff83818316178352505050506128ca565b5050565b612827828260405180602001604052806000815250612a8f565b5050565b6128c583838360405160240161284393929190613f26565b6040516020818303038152906040527f969cdd03000000000000000000000000000000000000000000000000000000007bffffffffffffffffffffffffffffffffffffffffffffffffffffffff19166020820180517bffffffffffffffffffffffffffffffffffffffffffffffffffffffff83818316178352505050506128ca565b505050565b60008151905060006a636f6e736f6c652e6c6f679050602083016000808483855afa5050505050565b505050565b60006129198473ffffffffffffffffffffffffffffffffffffffff16612aea565b15612a82578373ffffffffffffffffffffffffffffffffffffffff1663150b7a02612942611eff565b8786866040518563ffffffff1660e01b81526004016129649493929190613d06565b602060405180830381600087803b15801561297e57600080fd5b505af19250505080156129af57506040513d601f19601f820116820180604052508101906129ac9190613074565b60015b612a32573d80600081146129df576040519150601f19603f3d011682016040523d82523d6000602084013e6129e4565b606091505b50600081511415612a2a576040517f08c379a0000000000000000000000000000000000000000000000000000000008152600401612a2190613f64565b60405180910390fd5b805181602001fd5b63150b7a0260e01b7bffffffffffffffffffffffffffffffffffffffffffffffffffffffff1916817bffffffffffffffffffffffffffffffffffffffffffffffffffffffff191614915050612a87565b600190505b949350505050565b612a998383612afd565b612aa660008484846128f8565b612ae5576040517f08c379a0000000000000000000000000000000000000000000000000000000008152600401612adc90613f64565b60405180910390fd5b505050565b600080823b905060008111915050919050565b600073ffffffffffffffffffffffffffffffffffffffff168273ffffffffffffffffffffffffffffffffffffffff161415612b6d576040517f08c379a0000000000000000000000000000000000000000000000000000000008152600401612b64906140a4565b60405180910390fd5b612b7681611e93565b15612bb6576040517f08c379a0000000000000000000000000000000000000000000000000000000008152600401612bad90613fa4565b60405180910390fd5b612bc2600083836128f3565b6001600360008473ffffffffffffffffffffffffffffffffffffffff1673ffffffffffffffffffffffffffffffffffffffff1681526020019081526020016000206000828254612c129190614329565b92505081905550816002600083815260200190815260200160002060006101000a81548173ffffffffffffffffffffffffffffffffffffffff021916908373ffffffffffffffffffffffffffffffffffffffff160217905550808273ffffffffffffffffffffffffffffffffffffffff16600073ffffffffffffffffffffffffffffffffffffffff167fddf252ad1be2c89b69c2b068fc378daa952ba7f163c4a11628f55a4df523b3ef60405160405180910390a45050565b6040518060a0016040528060608152602001606081526020016000815260200160008152602001600081525090565b6040518060c001604052806000815260200160608152602001606081526020016000815260200160008152602001600081525090565b828054612d3c906144f4565b90600052602060002090601f016020900481019282612d5e5760008555612da5565b82601f10612d7757805160ff1916838001178555612da5565b82800160010185558215612da5579182015b82811115612da4578251825591602001919060010190612d89565b5b509050612db29190612db6565b5090565b5b80821115612dcf576000816000905550600101612db7565b5090565b6000612de6612de18461426c565b61423b565b905082815260208101848484011115612dfe57600080fd5b612e098482856144b2565b509392505050565b600081359050612e208161466d565b92915050565b600081359050612e3581614684565b92915050565b600081359050612e4a8161469b565b92915050565b600081519050612e5f8161469b565b92915050565b600082601f830112612e7657600080fd5b8135612e86848260208601612dd3565b91505092915050565b600081359050612e9e816146b2565b92915050565b600060208284031215612eb657600080fd5b6000612ec484828501612e11565b91505092915050565b60008060408385031215612ee057600080fd5b6000612eee85828601612e11565b9250506020612eff85828601612e11565b9150509250929050565b600080600060608486031215612f1e57600080fd5b6000612f2c86828701612e11565b9350506020612f3d86828701612e11565b9250506040612f4e86828701612e8f565b9150509250925092565b60008060008060808587031215612f6e57600080fd5b6000612f7c87828801612e11565b9450506020612f8d87828801612e11565b9350506040612f9e87828801612e8f565b925050606085013567ffffffffffffffff811115612fbb57600080fd5b612fc787828801612e65565b91505092959194509250565b60008060408385031215612fe657600080fd5b6000612ff485828601612e11565b925050602061300585828601612e26565b9150509250929050565b6000806040838503121561302257600080fd5b600061303085828601612e11565b925050602061304185828601612e8f565b9150509250929050565b60006020828403121561305d57600080fd5b600061306b84828501612e3b565b91505092915050565b60006020828403121561308657600080fd5b600061309484828501612e50565b91505092915050565b6000602082840312156130af57600080fd5b60006130bd84828501612e8f565b91505092915050565b60006130d28383613ae6565b905092915050565b6130e38161443e565b82525050565b60006130f4826142ac565b6130fe81856142da565b9350836020820285016131108561429c565b8060005b8581101561314c578484038952815161312d85826130c6565b9450613138836142cd565b925060208a01995050600181019050613114565b50829750879550505050505092915050565b61316781614450565b82525050565b6000613178826142b7565b61318281856142eb565b93506131928185602086016144c1565b61319b8161465c565b840191505092915050565b60006131b1826142c2565b6131bb81856142fc565b93506131cb8185602086016144c1565b6131d48161465c565b840191505092915050565b60006131ea826142c2565b6131f4818561430d565b93506132048185602086016144c1565b61320d8161465c565b840191505092915050565b6000613223826142c2565b61322d818561431e565b935061323d8185602086016144c1565b80840191505092915050565b6000613256600b8361431e565b91507f202d2d204e465420233a200000000000000000000000000000000000000000006000830152600b82019050919050565b600061329660328361430d565b91507f4552433732313a207472616e7366657220746f206e6f6e20455243373231526560008301527f63656976657220696d706c656d656e74657200000000000000000000000000006020830152604082019050919050565b60006132fc60288361430d565b91507f4572726f723a20626f7373206d757374206861766520485020746f206174746160008301527f636b20626f73732e0000000000000000000000000000000000000000000000006020830152604082019050919050565b6000613362601c8361430d565b91507f4552433732313a20746f6b656e20616c7265616479206d696e746564000000006000830152602082019050919050565b60006133a2600e8361431e565b91507f2c20226d61785f76616c7565223a0000000000000000000000000000000000006000830152600e82019050919050565b60006133e260248361430d565b91507f4552433732313a207472616e7366657220746f20746865207a65726f2061646460008301527f72657373000000000000000000000000000000000000000000000000000000006020830152604082019050919050565b600061344860198361430d565b91507f4552433732313a20617070726f766520746f2063616c6c6572000000000000006000830152602082019050919050565b6000613488602c8361430d565b91507f4552433732313a206f70657261746f7220717565727920666f72206e6f6e657860008301527f697374656e7420746f6b656e00000000000000000000000000000000000000006020830152604082019050919050565b60006134ee60388361430d565b91507f4552433732313a20617070726f76652063616c6c6572206973206e6f74206f7760008301527f6e6572206e6f7220617070726f76656420666f7220616c6c00000000000000006020830152604082019050919050565b6000613554602a8361430d565b91507f4552433732313a2062616c616e636520717565727920666f7220746865207a6560008301527f726f2061646472657373000000000000000000000000000000000000000000006020830152604082019050919050565b60006135ba60298361430d565b91507f4552433732313a206f776e657220717565727920666f72206e6f6e657869737460008301527f656e7420746f6b656e00000000000000000000000000000000000000000000006020830152604082019050919050565b6000613620602d8361430d565b91507f4572726f723a20636861726163746572206d757374206861766520485020746f60008301527f2061747461636b20626f73732e000000000000000000000000000000000000006020830152604082019050919050565b600061368660048361431e565b91507f7d205d7d000000000000000000000000000000000000000000000000000000006000830152600482019050919050565b60006136c660208361430d565b91507f4552433732313a206d696e7420746f20746865207a65726f20616464726573736000830152602082019050919050565b6000613706602c8361430d565b91507f4552433732313a20617070726f76656420717565727920666f72206e6f6e657860008301527f697374656e7420746f6b656e00000000000000000000000000000000000000006020830152604082019050919050565b600061376c60298361430d565b91507f4552433732313a207472616e73666572206f6620746f6b656e2074686174206960008301527f73206e6f74206f776e00000000000000000000000000000000000000000000006020830152604082019050919050565b60006137d2600a8361431e565b91507f7b226e616d65223a2022000000000000000000000000000000000000000000006000830152600a82019050919050565b600061381260528361431e565b91507f222c20226465736372697074696f6e223a20225468697320477265656b20476f60008301527f64206973206170617274206f662074686520475245454b20474f4453204e465460208301527f2047616d65222c2022696d616765223a202200000000000000000000000000006040830152605282019050919050565b600061389e60218361430d565b91507f4552433732313a20617070726f76616c20746f2063757272656e74206f776e6560008301527f72000000000000000000000000000000000000000000000000000000000000006020830152604082019050919050565b6000613904601d8361431e565b91507f646174613a6170706c69636174696f6e2f6a736f6e3b6261736536342c0000006000830152601d82019050919050565b600061394460318361430d565b91507f4552433732313a207472616e736665722063616c6c6572206973206e6f74206f60008301527f776e6572206e6f7220617070726f7665640000000000000000000000000000006020830152604082019050919050565b60006139aa603d8361431e565b91507f222c202261747472696275746573223a205b207b202274726169745f7479706560008301527f223a20224865616c746820506f696e7473222c202276616c7565223a200000006020830152603d82019050919050565b6000613a10602d8361431e565b91507f7d2c207b202274726169745f74797065223a202241747461636b2044616d616760008301527f65222c202276616c7565223a20000000000000000000000000000000000000006020830152602d82019050919050565b600060a0830160008301518482036000860152613a8682826131a6565b91505060208301518482036020860152613aa082826131a6565b9150506040830151613ab56040860182613c06565b506060830151613ac86060860182613c06565b506080830151613adb6080860182613c06565b508091505092915050565b600060c083016000830151613afe6000860182613c06565b5060208301518482036020860152613b1682826131a6565b91505060408301518482036040860152613b3082826131a6565b9150506060830151613b456060860182613c06565b506080830151613b586080860182613c06565b5060a0830151613b6b60a0860182613c06565b508091505092915050565b600060c083016000830151613b8e6000860182613c06565b5060208301518482036020860152613ba682826131a6565b91505060408301518482036040860152613bc082826131a6565b9150506060830151613bd56060860182613c06565b506080830151613be86080860182613c06565b5060a0830151613bfb60a0860182613c06565b508091505092915050565b613c0f816144a8565b82525050565b613c1e816144a8565b82525050565b6000613c2f826137c5565b9150613c3b8289613218565b9150613c4682613249565b9150613c528288613218565b9150613c5d82613805565b9150613c698287613218565b9150613c748261399d565b9150613c808286613218565b9150613c8b82613395565b9150613c978285613218565b9150613ca282613a03565b9150613cae8284613218565b9150613cb982613679565b9150819050979650505050505050565b6000613cd4826138f7565b9150613ce08284613218565b915081905092915050565b6000602082019050613d0060008301846130da565b92915050565b6000608082019050613d1b60008301876130da565b613d2860208301866130da565b613d356040830185613c15565b8181036060830152613d47818461316d565b905095945050505050565b6000606082019050613d6760008301866130da565b613d746020830185613c15565b613d816040830184613c15565b949350505050565b60006020820190508181036000830152613da381846130e9565b905092915050565b6000602082019050613dc0600083018461315e565b92915050565b60006020820190508181036000830152613de081846131df565b905092915050565b60006080820190508181036000830152613e0281876131df565b90508181036020830152613e1681866131df565b9050613e256040830185613c15565b8181036060830152613e3781846131df565b905095945050505050565b60006080820190508181036000830152613e5c81876131df565b90508181036020830152613e7081866131df565b9050613e7f6040830185613c15565b613e8c6060830184613c15565b95945050505050565b600060a0820190508181036000830152613eaf81886131df565b90508181036020830152613ec381876131df565b9050613ed26040830186613c15565b613edf6060830185613c15565b613eec6080830184613c15565b9695505050505050565b60006040820190508181036000830152613f1081856131df565b9050613f1f6020830184613c15565b9392505050565b60006060820190508181036000830152613f4081866131df565b9050613f4f6020830185613c15565b613f5c6040830184613c15565b949350505050565b60006020820190508181036000830152613f7d81613289565b9050919050565b60006020820190508181036000830152613f9d816132ef565b9050919050565b60006020820190508181036000830152613fbd81613355565b9050919050565b60006020820190508181036000830152613fdd816133d5565b9050919050565b60006020820190508181036000830152613ffd8161343b565b9050919050565b6000602082019050818103600083015261401d8161347b565b9050919050565b6000602082019050818103600083015261403d816134e1565b9050919050565b6000602082019050818103600083015261405d81613547565b9050919050565b6000602082019050818103600083015261407d816135ad565b9050919050565b6000602082019050818103600083015261409d81613613565b9050919050565b600060208201905081810360008301526140bd816136b9565b9050919050565b600060208201905081810360008301526140dd816136f9565b9050919050565b600060208201905081810360008301526140fd8161375f565b9050919050565b6000602082019050818103600083015261411d81613891565b9050919050565b6000602082019050818103600083015261413d81613937565b9050919050565b6000602082019050818103600083015261415e8184613a69565b905092915050565b600060208201905081810360008301526141808184613b76565b905092915050565b600060208201905061419d6000830184613c15565b92915050565b600060c0820190506141b86000830189613c15565b81810360208301526141ca81886131df565b905081810360408301526141de81876131df565b90506141ed6060830186613c15565b6141fa6080830185613c15565b61420760a0830184613c15565b979650505050505050565b60006040820190506142276000830185613c15565b6142346020830184613c15565b9392505050565b6000604051905081810181811067ffffffffffffffff821117156142625761426161462d565b5b8060405250919050565b600067ffffffffffffffff8211156142875761428661462d565b5b601f19601f8301169050602081019050919050565b6000819050602082019050919050565b600081519050919050565b600081519050919050565b600081519050919050565b6000602082019050919050565b600082825260208201905092915050565b600082825260208201905092915050565b600082825260208201905092915050565b600082825260208201905092915050565b600081905092915050565b6000614334826144a8565b915061433f836144a8565b9250827fffffffffffffffffffffffffffffffffffffffffffffffffffffffffffffffff03821115614374576143736145a0565b5b828201905092915050565b600061438a826144a8565b9150614395836144a8565b9250826143a5576143a46145cf565b5b828204905092915050565b60006143bb826144a8565b91506143c6836144a8565b9250817fffffffffffffffffffffffffffffffffffffffffffffffffffffffffffffffff04831182151516156143ff576143fe6145a0565b5b828202905092915050565b6000614415826144a8565b9150614420836144a8565b925082821015614433576144326145a0565b5b828203905092915050565b600061444982614488565b9050919050565b60008115159050919050565b60007fffffffff0000000000000000000000000000000000000000000000000000000082169050919050565b600073ffffffffffffffffffffffffffffffffffffffff82169050919050565b6000819050919050565b82818337600083830152505050565b60005b838110156144df5780820151818401526020810190506144c4565b838111156144ee576000848401525b50505050565b6000600282049050600182168061450c57607f821691505b602082108114156145205761451f6145fe565b5b50919050565b6000614531826144a8565b91507fffffffffffffffffffffffffffffffffffffffffffffffffffffffffffffffff821415614564576145636145a0565b5b600182019050919050565b600061457a826144a8565b9150614585836144a8565b925082614595576145946145cf565b5b828206905092915050565b7f4e487b7100000000000000000000000000000000000000000000000000000000600052601160045260246000fd5b7f4e487b7100000000000000000000000000000000000000000000000000000000600052601260045260246000fd5b7f4e487b7100000000000000000000000000000000000000000000000000000000600052602260045260246000fd5b7f4e487b7100000000000000000000000000000000000000000000000000000000600052604160045260246000fd5b6000601f19601f8301169050919050565b6146768161443e565b811461468157600080fd5b50565b61468d81614450565b811461469857600080fd5b50565b6146a48161445c565b81146146af57600080fd5b50565b6146bb816144a8565b81146146c657600080fd5b5056fe4142434445464748494a4b4c4d4e4f505152535455565758595a6162636465666768696a6b6c6d6e6f707172737475767778797a303132333435363738392b2f426f73732061747461636b656420706c617965722e204e657720706c617965722068703a2025730a4d696e746564204e465420772f20746f6b656e496420257320616e6420636861726163746572496e6465782025730a506c6179657220772f206368617261637465722025732061626f757420746f2061747461636b2e2048617320257320485020616e64202573204144a2646970667358221220d0a849de589814f39f5fed81e465ee8c5d137ba8e32ebdbe744b72e35ba353b264736f6c63430008000033446f6e6520696e697469616c697a696e6720257320772f2048502025732c20696d67202573446f6e6520696e697469616c697a696e6720626f737320257320772f2048502025732c20696d67202573",
  "linkReferences": {},
  "deployedLinkReferences": {}
}